:020000040000FA
:02000000E92FE6
:100B60009934143493340334073401340234F000DC
:100B7000831203138613701CC12D83120313861670
:100B8000C42D831203138612861786130800F501FD
:100B9000F601700871040319FE2DF701F70AF11B25
:100BA000DD2D01300310F00DF10DFF3E031DD22DA0
:100BB0000130F4007408F707CF2D01300310F50D54
:100BC000F60DFF3E031DDE2D71087302031DEA2D95
:100BD00070087202031CF32D7008F2027108031CE6
:100BE000F303F302751401300310F10CF00CFF3E17
:100BF000031DF42D0130F702031DDD2D7608F100F1
:100C00007508F0000800831603138601831203138E
:100C100086010730831603138100831203138614A1
:100C2000061186110612FA01FA0A2D08F926FA01B0
:100C3000FA0A0A30F9268312031386100615861164
:100C400006122508AE002E08FA002608F926FA0139
:100C5000FA0A0A30F9268312031386100611861544
:100C600006122508AE002E08FA002C08F926FA0113
:100C7000FA0A0A30F9268312031386100611861128
:100C80000616FA01FA0A2B08F926FA01FA0A0A30BE
:100C9000F9260D2E83120313010A031D08002208F2
:100CA000013EA20023080318013E003EA3000A30C3
:100CB000F0000030F1002308F3002208F200C725FD
:100CC000831203132408F800F90171087906031D43
:100CD0006B2E700878060319852E0A30F00000305C
:100CE000F1002308F3002208F200C7257008F8007D
:100CF000780883120313A4002508031D812E0130F8
:100D0000822E0030F8007808A5002A082302031D6F
:100D10008B2E29082202031C080027082007A000A8
:100D200028080318280A2107A10084302906033067
:100D300003192A06031DA42E9330A9000330AA002C
:100D40009930A7001430A800273021021030031971
:100D50002002031CC12E2008F03EA0002108031829
:100D6000013ED83EA1008430A9000330AA00270824
:100D7000393EA70028080318013EFD3EA8000130B7
:100D80008606A201A3012B08013EF8007808AB00FB
:100D90000A302B02031CD22EAB012C08013EF800B6
:100DA0007808AC0006302C02031CDC2EAC012608AF
:100DB000013EF8007808A6000A302602031CE62E41
:100DC000A6012D08013EF8007808AD0002302D0282
:100DD000031C08000930260203180800043026020C
:100DE000031C080002302D06031D0800A601AD01FA
:100DF0000800FD00831203130613B92F7A08B725E4
:100E00000130B7250130B7250130B7250130B725AE
:100E10000030B7250030B7250130B725E42F7A0818
:100E2000B7250030B7250130B7250030B725003091
:100E3000B7250130B7250030B7250030B725E42F9E
:100E40007A08B7250030B7250130B7250130B7251E
:100E50000030B7250030B7250030B7250030B72562
:100E6000E42F7A08B7250030B7250030B7250130C8
:100E7000B7250130B7250030B7250030B725013040
:100E8000B725E42F7A08B7250030B7250030B725FD
:100E90000130B7250030B7250030B7250130B72520
:100EA0000030B725E42F7A08B7250030B725003089
:100EB000B7250030B7250030B7250030B725013001
:100EC000B7250030B725E42F7A08B7250130B725BC
:100ED0000130B7250130B7250130B7250030B725DF
:100EE0000030B7250030B725E42F7A08B725003049
:100EF000B7250030B7250030B7250030B7250030C2
:100F0000B7250030B7250030B725E42F7A08B7257C
:100F10000030B7250030B7250130B7250030B725A0
:100F20000030B7250030B7250030B725E42F7A0808
:100F3000B7250130B7250030B7250030B725003080
:100F4000B7250030B7250030B7250030B725E42F8E
:100F50000130B7250130B7250130B7250130B7255D
:100F60000130B7250130B7250130B7250130B7254D
:100F7000E42F7D08FB00FC017C08003A0319C12F17
:100F8000E42F7B08003A0319972F013A0319FE2E2C
:100F9000033A03190F2F013A0319202F073A0319B7
:100FA000312F013A0319422F033A0319532F013A03
:100FB0000319642F0F3A0319752F013A0319862F6D
:100FC000033A0319A82FE42F8312031306174A26A6
:100FD0000800B025A700B125A800B225A900B325B7
:100FE000AA00B425AB00B525AC00B625AD00A00124
:100FF000A101A201A301A401A501A6018301032E61
:02400E0011FFA0
:00000001FF
