:020000040000FA
:02000000FA2FD5
:100C2A00FA008312031386137A1C1F2E83120313EE
:100C3A008616222E8312031386128617861308003D
:100C4A008316031386018312031386010730831662
:100C5A0003138100F801F9010230F4000030F500B5
:100C6A000230F2000030F3000530F0000030F100ED
:100C7A00F601F70163308312031381008312031311
:100C8A0086140611861106127908FC007808FB0002
:100C9A000E270A30FB000030FC000E2783120313D4
:100CAA0086100615861106127508FC007408FB00EA
:100CBA000E270A30FB000030FC000E2783120313B4
:100CCA0086100611861506127308FC007208FB00CE
:100CDA000E270A30FB000030FC000E278312031394
:100CEA0086100611861106167108FC007008FB00B2
:100CFA000E270A30FB000030FC000E27432E831219
:100D0A000313010A031D08007608013EF60077085E
:100D1A000318013E003EF70063308100DC3076069E
:100D2A00053003197706031D0800F601F70170085C
:100D3A00013EF00071080318013E003EF1007108FF
:100D4A00803AFF0080307F02031DAD2E0A30700208
:100D5A00031CB92EF001F1017208013EF20073087A
:100D6A000318013E003EF3007308803AFF0080300A
:100D7A007F02031DC22E06307202031CCE2EF20120
:100D8A00F3017408013EF40075080318013E003EA1
:100D9A00F5007508803AFF0080307F02031DD72EC8
:100DAA000A307402031CE32EF401F5017808013EAF
:100DBA00F80079080318013E003EF9007908803AE4
:100DCA00FF0080307F02031DEC2E02307802031CE4
:100DDA0008007508803AFF0080307F02031DF72E55
:100DEA0009307402031808007508803AFF00803041
:100DFA007F02031D022F04307402031C0800023014
:100E0A0078067904031D0800F401F501F801F901D7
:100E1A000800831203130613CD2F01301526013063
:100E2A001526013015260130152601301526003009
:100E3A0015260030152601301526F52F0130152606
:100E4A0000301526013015260030152600301526EB
:100E5A00013015260030152600301526F52F0130F1
:100E6A0015260030152601301526013015260030CA
:100E7A001526003015260030152600301526F52FC8
:100E8A0001301526003015260030152601301526AA
:100E9A00013015260030152600301526013015269A
:100EAA00F52F0130152600301526003015260130A1
:100EBA00152600301526003015260130152600307B
:100ECA001526F52F01301526003015260030152677
:100EDA00003015260030152600301526013015265B
:100EEA0000301526F52F0130152601301526013060
:100EFA00152601301526013015260030152600303A
:100F0A00152600301526F52F013015260030152636
:100F1A00003015260030152600301526003015261B
:100F2A000030152600301526F52F01301526003021
:100F3A0015260030152601301526003015260030FA
:100F4A0015260030152600301526F52F01301526F6
:100F5A0001301526003015260030152600301526DA
:100F6A00003015260030152600301526F52F0130E1
:100F7A0015260130152601301526013015260130B7
:100F8A001526013015260130152601301526F52FB4
:100F9A007C08003A0319D22FF52F7B08003A03196F
:100FAA00AB2F013A0319122F033A0319232F013ADF
:100FBA000319342F073A0319452F013A0319562FFB
:100FCA00033A0319672F013A0319782F0F3A0319C5
:100FDA00892F013A03199A2F033A0319BC2FF52FC7
:100FEA0083120313061784260800F601F701F80195
:060FFA00F9018301252E20
:02400E0011FFA0
:00000001FF
