:020000040000FA
:02000000F22FDD
:100B32000934023403340234F6007608F5007508ED
:100B4200F000F101F10A7730C82577080800F900B2
:100B52007908F7007708F0000230F8007808F10011
:100B62007A30C8257B08F6007A08F5000800F00004
:100B7200831203138613701CC22D8312031386166D
:100B8200C52D831203138612861786130800F400FC
:100B92007408F2007208F300831603139C18CD2D1B
:100BA20070089B000130F102710A031908009C18B9
:100BB200D82D7F30F20072089C051C141A08F2002E
:100BC20073088400720880000130F2007208F30793
:100BD2000130F20072089B07D32DF501F60170086F
:100BE20071040319252EF701F70AF11B042E0130B7
:100BF2000310F00DF10DFF3E031DF92D0130F4003D
:100C02007408F707F62D01300310F50DF60DFF3EBF
:100C1200031D052E71087302031D112E7008720246
:100C2200031C1A2E7008F2027108031CF303F3026C
:100C3200751401300310F10CF00CFF3E031D1B2E46
:100C42000130F702031D042E7608F1007508F0004A
:100C520008008316031386018312031386010730EB
:100C620083160313810002309D2583120313810032
:100C7200831203138614061186110612A001A00A1C
:100C82002C08022783120313A001A00A0A300227AC
:100C92008312031386100615861106122808A40073
:100CA2002408A0002B08022783120313A001A00A24
:100CB2000A300227831203138610061186150612C4
:100CC2002808A4002408A0002A080227831203137C
:100CD200A001A00A0A30022783120313861006110C
:100CE20086110616A001A00A2908022783120313FF
:100CF200A001A00A0A300227392E83120313010A27
:100D0200031D08002508013EA50026080318013E20
:100D1200003EA60002309D258312031381000F308E
:100D2200F0000030F1002608F3002508F200EE255D
:100D3200831203132708FC00FD0171087D06031DC1
:100D4200A42E70087C060319BE2E0F30F00000306E
:100D5200F1002608F3002508F200EE257008FC00D9
:100D62007C0883120313A7002808031DBA2E013042
:100D7200BB2E0030FC007C08A8000030A8257608B5
:100D8200831203132602031DC82E75082502031CB5
:100D92000800A501A6012908013EFC007C08A90063
:100DA2000A302902031CDB2EA9012A08013EFC009D
:100DB2007C08AA0006302A02031CE52EAA012B0891
:100DC200013EFC007C08AB000A302B02031CEF2E14
:100DD200AB012C08013EFC007C08AC0002302C0266
:100DE200031C080009302B020318080004302B02F0
:100DF200031C080002302C06031D0800AB01AC01E5
:100E0200080083120313A3000613C22F2008B8257B
:100E12000130B8250130B8250130B8250130B82598
:100E22000030B8250030B8250130B825ED2F200854
:100E3200B8250030B8250130B8250030B82500307B
:100E4200B8250130B8250030B8250030B825ED2F7F
:100E52002008B8250030B8250130B8250130B82562
:100E62000030B8250030B8250030B8250030B8254C
:100E7200ED2F2008B8250030B8250030B825013004
:100E8200B8250130B8250030B8250030B82501302A
:100E9200B825ED2F2008B8250030B8250030B82538
:100EA2000130B8250030B8250030B8250130B8250A
:100EB2000030B825ED2F2008B8250030B8250030C5
:100EC200B8250030B8250030B8250030B8250130EB
:100ED200B8250030B825ED2F2008B8250130B825F7
:100EE2000130B8250130B8250130B8250030B825C9
:100EF2000030B8250030B825ED2F2008B825003085
:100F0200B8250030B8250030B8250030B8250030AB
:100F1200B8250030B8250030B825ED2F2008B825B7
:100F22000030B8250030B8250130B8250030B8258A
:100F32000030B8250030B8250030B825ED2F200844
:100F4200B8250130B8250030B8250030B82500306A
:100F5200B8250030B8250030B8250030B825ED2F6F
:100F62000130B8250130B8250130B8250130B82547
:100F72000130B8250130B8250130B8250130B82537
:100F8200ED2F2308A100A2012208003A0319CA2F5B
:100F9200ED2F2108003A0319A02F013A0319072F58
:100FA200033A0319182F013A0319292F073A031993
:100FB2003A2F013A03194B2F033A03195C2F013AD6
:100FC20003196D2F0F3A03197E2F013A03198F2F40
:100FD200033A0319B12FED2F8312031306177E264E
:100FE20008009925A9009A25AA009B25AB009C25FB
:0E0FF200AC00A501A601A701A80183012A2ECB
:02400E0011FFA0
:06420000C300050062008E
:00000001FF
