:020000040000FA
:02000000FC2FD3
:100D9800F000831203138613701CD62E83120313DC
:100DA8008616D92E83120313861286178613080017
:100DB8008316031386018312031386018312031318
:100DC8008614061186110612FF2683120313861055
:100DD800061586110612FF268312031386100611C4
:100DE80086150612FF268312031386100611861134
:100DF8000616FF26E22EF601F701831203130613E7
:100E08007708F2007608F1002B27831203130617E0
:100E18000330F5008A30F4005530F300F30B122F3D
:100E2800F40B122FF50B122F192F0130F6070318A8
:100E3800F70A0030F7077708803AFF0080307F0212
:100E4800031D282F0A30760203180800012FD62F19
:100E58000130CC260130CC260130CC260130CC26FE
:100E68000130CC260030CC260030CC260130CC26F0
:100E780008000130CC260030CC260130CC260030CA
:100E8800CC260030CC260130CC260030CC260030D1
:100E9800CC2608000130CC260030CC260130CC26E8
:100EA8000130CC260030CC260030CC260030CC26B1
:100EB8000030CC2608000130CC260030CC2600308B
:100EC800CC260130CC260130CC260030CC26003090
:100ED800CC260130CC2608000130CC260030CC26A8
:100EE8000030CC260130CC260030CC260030CC2671
:100EF8000130CC260030CC2608000130CC2600304A
:100F0800CC260030CC260030CC260030CC26003051
:100F1800CC260130CC260030CC2608000130CC2667
:100F28000130CC260130CC260130CC260130CC262D
:100F38000030CC260030CC260030CC26080001300A
:100F4800CC260030CC260030CC260030CC26003011
:100F5800CC260030CC260030CC260030CC26080029
:100F68000130CC260030CC260030CC260130CC26EF
:100F78000030CC260030CC260030CC260030CC26E1
:100F880008000130CC260130CC260030CC260030B9
:100F9800CC260030CC260030CC260030CC260030C1
:100FA800CC2608007208003A0319DB2FFB2F7108C2
:100FB800003A0319C52F013A03192C2F033A0319D4
:100FC8003D2F013A03194E2F073A03195F2F013AB3
:100FD8000319702F033A0319812F013A0319922F2D
:100FE8000F3A0319A32F013A0319B42FFB2F080056
:080FF800F601F7018301DC2E74
:02400E0011FFA0
:00000001FF
