:020000040000FA
:02000000EA2FE5
:100B6000993414349334033405340234F00083127E
:100B700003138613701CC02D831203138616C32D16
:100B8000831203138612861786130800F501F601F7
:100B9000700871040319FD2DF701F70AF11BDC2D14
:100BA00001300310F00DF10DFF3E031DD12D01307A
:100BB000F4007408F707CE2D01300310F50DF60D83
:100BC000FF3E031DDD2D71087302031DE92D700822
:100BD0007202031CF22D7008F2027108031CF30369
:100BE000F302751401300310F10CF00CFF3E031DED
:100BF000F32D0130F702031DDC2D7608F100750896
:100C0000F000080083160313860183120313860184
:100C10000730831603138100831203138614061111
:100C200086110612FA01FA0A2708FA26FA01FA0AC8
:100C30000A30FA268312031386100615861106124F
:100C40002508AE002E08FA002608FA26FA01FA0A4C
:100C50000A30FA268312031386100611861506122F
:100C60002508AE002E08FA002D08FA26FA01FA0A25
:100C70000A30FA268312031386100611861106160F
:100C8000FA01FA0A2C08FA26FA01FA0A0A30FA26B8
:100C90000C2E83120313010A031D08002208013ED3
:100CA000A20023080318013E003EA3000A30F00012
:100CB0000030F1002308F3002208F200C625831259
:100CC00003132408F800F90171087906031D6A2E40
:100CD000700878060319842E0A30F0000030F10005
:100CE0002308F3002208F200C6257008F8007808EF
:100CF00083120313A4002508031D802E0130812ECA
:100D00000030F8007808A5002B082302031D8A2E66
:100D10002A082202031C08002008993EA00021088E
:100D20000318013E143EA1002B08803AFF008330D7
:100D30007F02031D9D2E95302A02031CA72E93309F
:100D400083120313AA000330AB00A001A1012730D6
:100D5000831203132102103003192002031CC22E38
:100D60002008F03EA00021080318013ED83EA10053
:100D70002A08013EAA002B080318013E003EAB00E2
:100D800001308606A201A3012C08013EF800780874
:100D9000AC000A302C02031CD32EAC012D08013EFE
:100DA000F8007808AD0006302D02031CDD2EAD01E1
:100DB0002608013EF8007808A6000A302602031C27
:100DC000E72EA6012708013EF8007808A7000230A8
:100DD0002702031C0800093026020318080004300B
:100DE0002602031C080002302706031D0800A60186
:100DF000A7010800FD00831203130613BA2F7A0817
:100E0000B6250130B6250130B6250130B6250130B2
:100E1000B6250030B6250030B6250130B625E52FC1
:100E20007A08B6250030B6250130B6250030B62543
:100E30000030B6250130B6250030B6250030B62585
:100E4000E52F7A08B6250030B6250130B6250130E9
:100E5000B6250030B6250030B6250030B625003066
:100E6000B625E52F7A08B6250030B6250030B62520
:100E70000130B6250130B6250030B6250030B62544
:100E80000130B625E52F7A08B6250030B6250030AA
:100E9000B6250130B6250030B6250030B625013024
:100EA000B6250030B625E52F7A08B6250030B625E0
:100EB0000030B6250030B6250030B6250030B62506
:100EC0000130B6250030B625E52F7A08B625013069
:100ED000B6250130B6250130B6250130B6250030E3
:100EE000B6250030B6250030B625E52F7A08B625A0
:100EF0000030B6250030B6250030B6250030B625C6
:100F00000030B6250030B6250030B625E52F7A082A
:100F1000B6250030B6250030B6250130B6250030A4
:100F2000B6250030B6250030B6250030B625E52FB1
:100F30007A08B6250130B6250030B6250030B62532
:100F40000030B6250030B6250030B6250030B62575
:100F5000E52F0130B6250130B6250130B625013028
:100F6000B6250130B6250130B6250130B625013051
:100F7000B625E52F7D08FB00FC017C08003A03192B
:100F8000C22FE52F7B08003A0319982F013A031965
:100F9000FF2E033A0319102F013A0319212F073AA4
:100FA0000319322F013A0319432F033A0319542F1F
:100FB000013A0319652F0F3A0319762F013A0319E5
:100FC000872F033A0319A92FE52F8312031306175E
:100FD00049260800B025A800B125A900B225AA001D
:100FE000B325AB00B425AC00B525AD00A001A1012F
:100FF000A201A301A401A501A601A7018301022E5C
:02400E0011FFA0
:00000001FF
