:020000040000FA
:02000000FC2FD3
:100BB000F6007608F5007508F000F101F10A7730CB
:100BC000F32577080800F000831203138613701CC6
:100BD000ED2D831203138616F02D83120313861254
:100BE000861786130800F4007408F2007208F300F8
:100BF000831603139C18F82D70089B000130F10236
:100C0000710A031908009C18032E7F30F200720845
:100C10009C051C141A08F2007308840072088000F6
:100C20000130F2007208F3070130F20072089B07EE
:100C3000FE2D8316031386018312031386010730EA
:100C4000831603138100013083120313A4000030C4
:100C5000A5000330FC000030FD000430A20000308D
:100C6000A3000930A0000030A100A601A7010030B8
:100C7000D8258312031381008312031386140611EF
:100C800086110612F801F80A24080C27F801F80A60
:100C90000A300C27831203138610061586110612DC
:100CA000F8017C080C27F801F80A0A300C27831297
:100CB00003138610061186150612F80122080C2768
:100CC000F801F80A0A300C27831203138610061164
:100CD00086110616F801F80A20080C27F801F80A10
:100CE0000A300C273C2E83120313010A031D08004F
:100CF0002608013EA60027080318013E003EA70073
:100D00000030D825831203138100DC30260605301D
:100D100003192706031D0800A601A7012008013EAC
:100D2000A00021080318013E003EA1002108803ADE
:100D3000FF0080307F02031D9F2E0A302002031C1B
:100D4000AD2E83120313A001A1012208013EA200CF
:100D500023080318013E003EA30083120313230857
:100D6000803AFF0080307F02031DB82E0630220239
:100D7000031CC62E83120313A201A3017C08013EAB
:100D8000FC007D080318013E003EFD007D08803A0E
:100D9000FF0080307F02031DCF2E0A307C02031C2F
:100DA000DD2EFC01FD01831203132408013EA40083
:100DB00025080318013E003EA500831203132508F1
:100DC000803AFF0080307F02031DE82E02302402AB
:100DD000031C08007D08803AFF0080307F02031D5D
:100DE000F32E09307C02031808007D08803AFF00CA
:100DF00080307F02031DFE2E04307C02031C08009D
:100E000002308312031324062504031D0800FC018D
:100E1000FD01A401A5010800FB00831203130613C2
:100E2000CC2F7808E3250130E3250130E32501309C
:100E3000E3250130E3250030E3250030E3250130D0
:100E4000E325F72F7808E3250030E3250130E3257B
:100E50000030E3250030E3250130E3250030E325B1
:100E60000030E325F72F7808E3250030E325013033
:100E7000E3250130E3250030E3250030E325003091
:100E8000E3250030E325F72F7808E3250030E3253C
:100E90000030E3250130E3250130E3250030E32570
:100EA0000030E3250130E325F72F7808E3250030F3
:100EB000E3250030E3250130E3250030E325003051
:100EC000E3250130E3250030E325F72F7808E325FB
:100ED0000030E3250030E3250030E3250030E32532
:100EE0000030E3250130E3250030E325F72F7808B3
:100EF000E3250130E3250130E3250130E32501300E
:100F0000E3250030E3250030E3250030E325F72F0B
:100F10007808E3250030E3250030E3250030E325A1
:100F20000030E3250030E3250030E3250030E325E1
:100F3000F72F7808E3250030E3250030E325013062
:100F4000E3250030E3250030E3250030E3250030C1
:100F5000E325F72F7808E3250130E3250030E3256A
:100F60000030E3250030E3250030E3250030E325A1
:100F70000030E325F72F0130E3250130E325013070
:100F8000E3250130E3250130E3250130E32501307D
:100F9000E3250130E325F72F7B08F900FA017A08F1
:100FA000003A0319D42FF72F7908003A0319AA2F12
:100FB000013A0319112F033A0319222F013A031999
:100FC000332F073A0319442F013A0319552F033AD7
:100FD0000319662F013A0319772F0F3A0319882F47
:100FE000013A0319992F033A0319BB2FF72F8312E4
:100FF0000313061773260800A601A7018301192E03
:02400E0011FFA0
:0242000062005A
:00000001FF
