:020000040000FA
:02000000F62FD9
:100DA800F800831203138613781CDE2E83120313B4
:100DB8008616E12E831203138612861786130800FF
:100DC800831603138601831203138601F601F701C4
:100DD800F401F501F201F301F001F10183120313AB
:100DE80086140611861106127708FA007608F900AB
:100DF8001F2783120313861006158611061275081D
:100E0800FA007408F9001F278312031386100611CD
:100E1800861506127308FA007208F9001F27831254
:100E2800031386100611861106167108FA00700859
:100E3800F9001F27F22E831203130613CD2F01305A
:100E4800D4260130D4260130D4260130D4260130EE
:100E5800D4260030D4260030D4260130D426F22FF0
:100E68000130D4260030D4260130D4260030D426D0
:100E78000030D4260130D4260030D4260030D426C1
:100E8800F22F0130D4260030D4260130D426013088
:100E9800D4260030D4260030D4260030D4260030A2
:100EA800D426F22F0130D4260030D4260030D426A0
:100EB8000130D4260130D4260030D4260030D42680
:100EC8000130D426F22F0130D4260030D426003049
:100ED800D4260130D4260030D4260030D426013060
:100EE800D4260030D426F22F0130D4260030D42660
:100EF8000030D4260030D4260030D4260030D42642
:100F08000130D4260030D426F22F0130D426013007
:100F1800D4260130D4260130D4260130D42600301E
:100F2800D4260030D4260030D426F22F0130D4261F
:100F38000030D4260030D4260030D4260030D42601
:100F48000030D4260030D4260030D426F22F0130C9
:100F5800D4260030D4260030D4260130D4260030E0
:100F6800D4260030D4260030D4260030D426F22FE0
:100F78000130D4260130D4260030D4260030D426BF
:100F88000030D4260030D4260030D4260030D426B1
:100F9800F22F7A08003A0319D22FF22F7908003A73
:100FA8000319BC2F013A0319232F033A0319342FCD
:100FB800013A0319452F073A0319562F013A031925
:100FC800672F033A0319782F013A0319892F0F3A2B
:100FD80003199A2F013A0319AB2FF22F8312031327
:100FE80006170800F001F101F201F301F401F5011F
:080FF800F601F7018301E42E6C
:02400E0011FFA0
:00000001FF
